:1000000000400020150900005D0900005F090000A4
:1000100000000000000000000000000000000000E0
:100020000000000000000000000000006109000066
:1000300000000000000000006309000065090000E6
:100040006709000067090000F1020000670900006D
:100050006709000000000000FD04000067090000BF
:1000600067090000670900006709000067090000D0
:1000700067090000670900006709000067090000C0
:1000800067090000670900006709000067090000B0
:1000900067090000670900006709000067090000A0
:1000A0006709000067090000000000000000000070
:1000B0000000000000000000000000000000000040
:1000C000164B002B00D1144B9D46402292029A1AE7
:1000D000924600218B460F461348144A121A00F02C
:1000E00067F80F4B002B00D098470E4B002B00D029
:1000F00098470020002104000D000D48002802D080
:100100000C4800E000BF00F02DF82000290000F0AE
:1001100011FB00F011F8C04600000800004000206C
:10012000000000000000000068000020D001002056
:100130000000000000000000084B10B5041C002B5C
:1001400002D0002100E000BF054B1868836A002B35
:1001500000D09847201C00F033F8C0460000000093
:10016000041900000E4B70B500251E1C0D4CE41A3E
:10017000A410A54204D0AB00F35898470135F8E726
:1001800001F0B2FB084B00251E1C084CE41AA41019
:10019000A54204D0AB00F35898470135F8E770BD8D
:1001A000680000206800002068000020680000202F
:1001B000031C8218934202D019700133FAE770478A
:1001C000FEE7C04610B5204A82B01378DBB2002BA0
:1001D00005D0032B01D10223137002B010BDA02162
:1001E00004201A4BC900585001211960D4681069C5
:1001F00084421CD01078022800D09960D16813691D
:10020000994216D0D1681389C2200B4051688000F2
:10021000CC5C8021D3680133D3600C4B19500C485F
:100220001C5002201070C12292009950D5E7117025
:10023000D3E7012305496846CB6069461370023352
:100240000B7053699847C8E7680000200020004001
:100250001C050000BFF34F8F024A034BDA60BFF367
:100260004F8FFEE70400FA0500ED00E008B50378C3
:10027000013B012B00D908BDFFF7ECFF1A4AF8B586
:1002800093691C1C044021420DD1194028D103421E
:1002900000D1F8BD1378DBB2012B19D0022BF8D1B5
:1002A00003231370F5E7156A147F002DF1D024267F
:1002B000965DA642EDD9A226A027F600FF05BE59FD
:1002C000A7003C19A400645934402040A143DCE756
:1002D0001170064AD3605360A023DB00D150D8E7E9
:1002E000FFF770FFD5E7C0466800002000200040FF
:1002F000842230B5464B5200995883B000292ED144
:100300008E22434B52009958002915D19222404B1E
:100310005200995800290DD0002199509021C90010
:100320005A5868465A50022369460B70394B01925D
:100330005B69984703B030BD0020364998500A7871
:10034000D2B2002AE2D0022A1ED9032ADED1023A12
:100350000870DA605A60A022D2009850D6E70020D8
:100360009850A322D2009D582A4B1C6B998D5A6B32
:10037000121B8A422AD9012269460A70033201926D
:100380005B6968469847BBE7C8680A6990423BD0FA
:100390000A78022A01D001229A60CA680B699A423F
:1003A00027D0CA680B89C22013404A688000D45CF9
:1003B0008022CB680133CB60154B1A5016481C5075
:1003C00002200870C12189005A509FE75A6B1140E2
:1003D0009A6A55545A6B01325A63196B5A6B521A06
:1003E000012A00D08CE76A465B691070684698471E
:1003F00086E70123064AD3600B7003236A46137015
:100400004B696846984781E70122DA600A70F4E791
:1004100000200040680000201C050000074B186BFE
:100420005A6B9042FBD0186B9A8D0240986A825C9E
:1004300001200A701A6B01321A63704768000020AD
:10044000F0B546464F46C0B4904683B0002A3DDD25
:1004500001230D1C8E18264C264F994606E0237862
:10046000DBB2012B14D00135B5422FD0E1682289CF
:10047000236928785B1A9342F1D823691A4063688C
:1004800098542369013323612378DBB2012BEAD12D
:100490002278022A00D0BB60E26823699A421BD00E
:1004A000E2682389013513406268D15CE368C222A7
:1004B0000133E36080239200BB500F4AB9500222FF
:1004C0002270C1229200BB50B542CFD1404603B04A
:1004D0000CBC90469946F0BD4B46FB604B466A46C5
:1004E000237003236846137063699847BBE7C046CF
:1004F00068000020002000401C050000F0B54D46BB
:100500005F4656464446A223A022F0B4D205DB0043
:10051000D3580021181CBE235C4A5B00D1505C4BB1
:1005200085B0994624234A46D35C00220193002BD0
:1005300064D0E024161CE400804604E00136019BF0
:10054000F6B29E425AD201224B46B240196A9B6BC8
:100550001342F3D0B3009B199B00CB184146DA68D5
:100560001D684A4095434B4A00209446B24612E02B
:1005700080261143B602D960A021C9058B46674683
:1005800082005A44115939401151115931431151C6
:10059000013020280AD0012282401542F8D0D968C3
:1005A0001142E5D0C0269143B602E4E7A222A02181
:1005B000D200C9058A58414618684A40564602404A
:1005C00023D193469246996858682F1C4246974318
:1005D0005A4639401143424615400540504628438B
:1005E000021C0A43AAD01B69984724234A46D35CBD
:1005F00001360193019BF6B29E42A4D305B03CBCE8
:1006000090469946A246AB46F0BD41465140DA6855
:1006100002914A401F499043039500221D1C8B46BE
:10062000031CB24612E080260843B602E860A02010
:10063000C00584465F46910061440859384008511E
:100640000859304308510132202A0AD00121914033
:100650000B42F8D0E8680842E5D0C0268843B602CD
:10066000E4E756469A462B1C996850460A1C029F9E
:10067000039DBA43024093463A1C58680240944690
:10068000524667463A4092469FE7C04600600040A7
:1006900068000020FFFFFCFF1F4B1B78012B00D0E0
:1006A00070471E4B1B681B07FAD1F0221C4B1B68BE
:1006B000134018D11B4B1B6813421AD0174B1B68F1
:1006C0001B07EDD1F022164B1B681340402BE7D1DE
:1006D000144B1B681342E3D1C12380220121DB00AC
:1006E000D205D150DCE7102B0FD10E4B1B68134203
:1006F000E8D10D4A0D4B1A6080220D4B12021A6090
:10070000054B1B78012BD9D0CAE7302BDAD1054B2A
:100710001B681342D6D1ECE7E00F00F0E40F00F0C5
:10072000E80F00F0EC0F00F0DFFF07C00405004009
:10073000186C0040F0B55F4656464D464446F0B44E
:100740000025614C614B01261D60201C502385B0A3
:10075000E6543C302C3B00211422E554A563206272
:10076000FFF726FDC2239B001A1C01235B4298461B
:100770004146574B0192C12099504023554A82313E
:10078000FF31535080009946534913580B40802144
:10079000C9030B4313504B461360504B0321636155
:1007A000231C5433A362231C58336360FF238A46FF
:1007B0002381A02357464A49DB052570A58525637B
:1007C0006563E56025615F5046495D5009218A46B1
:1007D0005746454B45495F500B218A465746444989
:1007E0005F5044498A46574643495F5043495D50EC
:1007F0008A4643498B460978894601218C46E14463
:100800004F4659460F7004218946A0214F46C90022
:100810005F50842149005D5014315D5051465D5850
:1008200035435D50A2250A21ED0059510239083D9A
:1008300059519E601E6026704446019980255C5087
:10084000A124C021A4001C50C023490057509B0084
:10085000D05821492B4C0140C02000040143D15005
:10086000294B1760984600276D0026606359254A7A
:10087000002BFBD080235B00D750A123DB00D15895
:10088000D358890501D5214A1343DA17920FD3189B
:100890009B10039366600399404600F065F8FA23C5
:1008A0005B00013B1A480138C046C046C046C046FE
:1008B000C046C046C046C046C046C046C046C04608
:1008C000F1D1002BEDD1D0E76800002004C5004035
:1008D0000060004000E100E0FFFF00FF6D0200004B
:1008E000240700002C070000002000400C05000039
:1008F0001405000000509D00240500006C05000058
:100900006400002000C000400819000000FCFFFF48
:10091000E703000003210A4802680A43026009480D
:1009200002680A4302600849084A094B9B1A03DD22
:10093000043BC858D050FBDC0648804706480047B7
:100940002405004054050040C019000000000020AC
:100950006800002099060000C1000000FEE7FEE7E5
:10096000FEE7FEE7FEE7FEE70FB40B4B13B51C688E
:10097000002C05D0A369002B02D1201C00F050F8F8
:1009800005AB201CA168049A019300F05BF916BC2A
:1009900008BC04B01847C0466000002008B50249F2
:1009A00000F0AEF808BDC04625150000002310B5C4
:1009B000041C03604360836081814366C2810361DC
:1009C00043618361191C08225C30FFF7F1FB054B82
:1009D00024626362044BA362044BE362044B23630F
:1009E00010BDC04695110000BD110000F5110000BA
:1009F0002112000070B568254B1E5D430E1C291C9A
:100A0000743100F09FF8041E08D000212A1C0160F8
:100A100046600C30A0606832FFF7CAFB201C70BD36
:100A2000836913B5002B28D18364C3640365134B1A
:100A3000134A1B6882620193984201D101238361AA
:100A4000041C00F01FF86060201C00F01BF8A06080
:100A5000201C00F017F80421E06000226068FFF716
:100A6000A5FFA06809210122FFF7A0FFE06812217D
:100A70000222FFF79BFF0123A36113BD04190000AD
:100A80009D090000F8B51D4B061C1D68AB69002BC5
:100A900002D1281CFFF7C4FF4835AC686B68013BE6
:100AA00005D40C22A75E002F10D06834F7E72B681E
:100AB000002B06D1301C0421FFF79CFF2860002882
:100AC00001D02D68E9E70C23336016E00123201CD8
:100AD0005B42E3810233A38167662760A76067609A
:100AE00027616761A7615C30391C0822FFF760FB52
:100AF000201C6763A763A764E764F8BD04190000BE
:100B0000F7B5041C071C002601914834002C16D0B0
:100B10006368A5680093009B013B00930DD4AB89EB
:100B2000012B08D90E22AB5E013304D0381C291CDE
:100B3000019B984706436835EDE72468E6E7301CDB
:100B4000FEBD0000032370B5CC1C9C430834051C7B
:100B50000C2C01D20C2405E0002C03DA0C2300201D
:100B60002B6042E08C42F9D3204A1368101C191CF8
:100B7000002913D00A68121B0DD40B2A02D90A606F
:100B80008B181FE08B4202D15A6802601BE04A6852
:100B90005A600B1C17E00B1C4968E9E7144E3368D8
:100BA000002B03D1281C00F0E3FA3060281C211C24
:100BB00000F0DEFA031C421CD0D00322C61C964370
:100BC00086420AD11C60181C07210B301A1D88436D
:100BD000821A0AD05142995007E0311A281C00F0BD
:100BE000C7FA431CBAD0331CECE770BDC401002027
:100BF000C0010020936810B5013B9360002B05DA1B
:100C00009469A34208DBCBB20A2B05D01368581CA9
:100C100010601970C8B201E000F008FB10BDF8B513
:100C2000061C0F1C141CD518AC4208D02178301CAF
:100C30003A1CFFF7DFFF0134431CF5D100E0002030
:100C4000F8BD0000F0B59FB0061C0F1C0292059382
:100C5000002804D08369002B01D1FFF7E1FE794B16
:100C60009F4201D1776808E0774B9F4201D1B76876
:100C700003E0764B9F4200D1F768BB891B070AD57A
:100C80003B69002B07D0002306AD6B6120336B76E8
:100C90001033AB763DE0301C391C00F033FB0028EC
:100CA000F1D001204042CAE0059A111D1268059159
:100CB000002A7EDB0992013423782E2B00D189E0B3
:100CC00021786348032200F0C5FC002808D0604B5F
:100CD0000134C01A40238340181C2B681843286035
:100CE0002178631C5B4806220293297600F0B2FC4F
:100CF000002800D191E0584B002B00D084E007225F
:100D0000059B07339343083305936B69039A9B183C
:100D10006B61029C2378002B04D1029BE31A04939D
:100D200011D003E0252BF8D00134F3E7049B301CED
:100D3000391C029AFFF773FF431C7BD06A69049B3E
:100D4000944663446B612378002B73D00122002307
:100D500052426A6002A95432521801342B60EB608F
:100D6000AB601370AB6521783C48052200F072FC43
:100D7000002809D0394B0134C01A01238340181CC4
:100D80002B6818432860EEE72B68DA0604D5532257
:100D9000202102A8121811701A0704D553222B2102
:100DA00002A81218117022782A2A00D17CE7099B28
:100DB00005E05242EA60022213432B607BE722786F
:100DC000303A092A04D80A214B4301349B18F6E72C
:100DD000099371E763782A2B09D1059B02341A1D08
:100DE0001B680592002B0DDA01235B420AE0002309
:100DF00001342278303A092A04D80A214B430134BD
:100E00009B18F6E707935BE705AB0093301C291CA2
:100E10003A1C134B00E000BF07E005AB0093301C09
:100E2000291C3A1C0E4B00F08BF80390039B0133F6
:100E300000D06AE7BB895B0600D532E70B981FB08C
:100E4000F0BDC046241900004419000064190000D8
:100E50008A1900008E1900000000000084190000AB
:100E60001F0C0000F7B5171C01930A698B680090EE
:100E70000C1C934200DA131C221C3B604332127894
:100E8000002A01D001333B6023689B0602D53B68F2
:100E900002333B60062523681D401ED0231C4333CC
:100EA0001B785A1E9341226892061CD53020E11807
:100EB0004031C870211C5A1C45310978A2184032B3
:100EC0000233D1700FE0221C0123009801991932DE
:100ED000089EB047431C0ED00135E3683A689B1A60
:100EE0009D42F0DBDAE7221C009801994332089D0D
:100EF000A847431C02D10120404220E0062320687D
:100F0000E1683A6803400025042B03D18D1AEB43B6
:100F1000DB171D40A3682269934201DD9B1AED187F
:100F20000027AF420ADA221C0123009801991A32E5
:100F3000089EB047431CDED00137F2E70020FEBD1B
:100F4000F0B58BB006920A1C4332079305900492C9
:100F50000A7E0C1C109B6E2A00D1A8E011D8632ACF
:100F600022D009D8002A00D1B2E0582A00D0C2E02D
:100F700045310A707C4A4FE0642A1DD0692A1BD093
:100F8000B9E0732A00D1A7E009D86F2A29D0702AC6
:100F900000D0B0E0202209680A43226037E0752AB9
:100FA0001FD0782A33D0A6E00E1C1A684236111DD5
:100FB000196013683370A1E021681A68080606D426
:100FC000490604D5111D19600023D55E02E0111DEC
:100FD00019601568002D3BDA2D23049A6D421370B9
:100FE00036E021681A68080606D4490604D5156853
:100FF000111D1960ADB202E0111D196015685A4B40
:10100000227E03930A276F2A1DD108271BE0221C8A
:10101000782145321170554A19680392081D2268DB
:1010200018600D68100602D4500600D5ADB2D30783
:1010300002D520231A4322601027002D03D120233C
:1010400022689A432260231C002243331A7002E074
:101050000A27454B03936368A360002B03DB04223C
:10106000216891432160002D02D1049E002B0ED0F7
:10107000049E281C391C00F0FDFB039B013E5B5CB9
:10108000281C3370391C00F06FFB051EF1D1082FAE
:1010900009D12368DB0706D563682269934202DC25
:1010A0003023013E3370049B9B1B23612BE00968B6
:1010B0001A68080607D4490605D5111D196013687A
:1010C000A28A1A8004E0111D1960136862691A600F
:1010D0000023049E236116E01A68111D196016682A
:1010E0000021301C626800F0B5FA002801D0801B96
:1010F0006060636803E0261C42363270012323617E
:101100000023049A1370079B05980093211C069BEB
:1011100009AAFFF7A7FE431C02D10120404221E0AB
:10112000236905980699321C079DA847431CF4D0F3
:1011300023689B0705D4099BE068984212DA181CC3
:1011400010E00025E368099A9B1A9D42F3DA221CFD
:101150000123059806991932079EB047431CDCD03D
:101160000135EFE70BB0F0BD95190000A61900009E
:1011700038B50023064C051C081C236000F0A6FBB4
:10118000431C03D12368002B00D02B6038BDC04620
:10119000CC01002038B50C1C0E25495F00F0ACFADC
:1011A000002803DB636D1B18636503E0A289024B13
:1011B0001340A38138BDC046FFEFFFFFF8B51E1CEA
:1011C0008B89051C0C1C171CDB0505D50E23C95E7D
:1011D0000022022300F0D2F9A289054B281C1340FB
:1011E000A3813A1C0E23E15E331C00F077F8F8BDB2
:1011F000FFEFFFFF38B50C1C0E25495F00F0BEF96C
:10120000A389421C03D1054A1340A38104E0802234
:1012100052011343A381606538BDC046FFEFFFFF55
:1012200008B50E23C95E00F0E1F808BD70B5051CD5
:101230000E1C141C002804D08369002B01D1FFF779
:10124000EFFB234B9C4201D16C6808E0214B9C4290
:1012500001D1AC6803E0204B9C4200D1EC68A3694B
:10126000A360A3891B070AD52369002B07D0236835
:101270002269F6B2981A636998420FDB08E0281CCD
:10128000211C00F03FF80028F1D0012040421DE071
:10129000281C211C00F046F90028F6D1A368013073
:1012A000013BA36023685A1C22601E706369984248
:1012B00005D0A389301CDB0708D50A2E06D1281CCF
:1012C000211C00F02FF90028DFD1301C70BDC04672
:1012D00024190000441900006419000038B5051CE9
:1012E0000020074C2060081C111C1A1CFFF7A8F8EE
:1012F000431C03D12368002B00D02B6038BDC046AF
:10130000CC010020354B70B51D68061C0C1C002D4F
:1013100005D0AB69002B02D1281CFFF781FB304BB5
:101320009C4201D16C6808E02E4B9C4201D1AC6814
:1013300003E02D4B9C4200D1EC68A3899AB21107BF
:1013400023D4D10607D40922012032603732134357
:10135000A381404240E0530713D5616B002908D0B8
:10136000231C4433994202D0301C00F07FF9002343
:1013700063632422A3899343A381002363602369C9
:1013800023600822A3891343A3812369002B0BD177
:10139000A023A2899B00134080229200934203D095
:1013A000301C211C00F0FEF80123A289134005D057
:1013B0000023A36063695B42A36103E0910700D44B
:1013C0006369A36000202369834205D1130603D516
:1013D00040231A43A281013870BDC046600000203E
:1013E00024190000441900006419000038B50023D6
:1013F000064C051C081C236000F048FA431C03D16E
:101400002368002B00D02B6038BDC046CC010020E3
:10141000F7B58A89051C0C1C13075ED44B68002B9A
:1014200002DC0B6C002B1ADDE76A002F17D00023BB
:101430002E682B6080235B011A4001D0626D15E09D
:10144000281C216A0123B847021C431C0ED12B68BB
:10145000002B0BD01D2B01D0162B02D12E600020AB
:101460005EE04021A3890B43A38159E0A3895B0778
:1014700006D56368D21A636B002B01D0236CD21A95
:101480000023281C216AE76AB847A389421C06D1B9
:101490002A68002A03D01D2A01D0162A19D1002259
:1014A000626022692260DB0405D5431C02D12B68EF
:1014B000002B00D16065616B2E600029CFD0231C0A
:1014C0004433994202D0281C00F0D0F80020606319
:1014D00026E040221343A38122E00F69002FBED0F3
:1014E0000B680F60DB1B01930023920700D14B694F
:1014F000A360019B002BB2DD281C216A3A1C019BD2
:10150000A66AB047002806DC40220120A389404299
:101510001343A38104E0019B3F181B1A0193E8E7E2
:10152000FEBD000038B50B69051C0C1C002B01D159
:1015300000201CE0002804D08369002B01D1FFF7B4
:101540006FFA0B4B9C4201D16C6808E0094B9C423E
:1015500001D1AC6803E0084B9C4200D1EC680C223E
:10156000A35E002BE4D0281C211CFFF751FF38BDDF
:1015700024190000441900006419000038B5051C46
:101580000020074C2060081C111C1A1C00F096F962
:10159000431C03D12368002B00D02B6038BDC0460C
:1015A000CC010020F0B58B8991B09B0706D50B1CB0
:1015B00047330B600B6101234B6145E00C1C0E238C
:1015C000C95E061C002904DA8023A5891D4010D1BC
:1015D0000CE001AA00F0A4F80028F5DBF023029D3E
:1015E0001B021D40194BED186B425D418027FF0027
:1015F00001E000254027301C391CFFF7A3FA002822
:101600000CD1A3899A051FD402221343A381231C62
:101610004733236023610123636115E080220C4B73
:10162000B362A38920601343A38120616761002D09
:101630000AD00E23E15E301C00F084F8002803D0AD
:101640000122A3891343A38111B0F0BD00E0FFFF85
:101650009D090000C9B28218904204D003788B42E1
:1016600002D00130F8E700207047000030B50029B3
:101670003ED004390B68002B00DAC9181D4A1368E4
:10168000141C002B02D14B60116031E099420DD245
:1016900008680A189A4203D11368C3180B6053688C
:1016A0004B60216024E08A4203D8131C5A68002A48
:1016B000F9D11D685C198C420BD10968691858185A
:1016C0001960904214D110685268091819605A6064
:1016D0000EE08C4202D90C23036009E008680C1864
:1016E000944203D114685268001908604A60596036
:1016F00030BDC046C401002038B5051C0020074C91
:101700002060081C111C1A1CFEF788FE431C03D124
:101710002368002B00D02B6038BDC046CC010020D0
:1017200038B50023064C051C081C111C236000F072
:10173000B5F8431C03D12368002B00D02B6038BDC3
:10174000CC01002038B50023064C051C081C236082
:1017500000F0ACF8431C03D12368002B00D02B60B1
:1017600038BDC046CC010020002243088B4274D310
:1017700003098B425FD3030A8B4244D3030B8B4292
:1017800028D3030C8B420DD3FF22090212BA030C9B
:101790008B4202D31212090265D0030B8B4219D37C
:1017A00000E0090AC30B8B4201D3CB03C01A52419C
:1017B000830B8B4201D38B03C01A5241430B8B42E4
:1017C00001D34B03C01A5241030B8B4201D30B03CD
:1017D000C01A5241C30A8B4201D3CB02C01A5241F4
:1017E000830A8B4201D38B02C01A5241430A8B42B7
:1017F00001D34B02C01A5241030A8B4201D30B02A0
:10180000C01A5241CDD2C3098B4201D3CB01C01AB9
:10181000524183098B4201D38B01C01A52414309C3
:101820008B4201D34B01C01A524103098B4201D3B1
:101830000B01C01A5241C3088B4201D3CB00C01A1E
:10184000524183088B4201D38B00C01A5241430896
:101850008B4201D34B00C01A5241411A00D20146BB
:10186000524110467047FFE701B5002000F00CF828
:1018700002BDC0460029F7D003B5FFF775FF0EBCC7
:101880004243891A1847C0467047C0465822012073
:10189000014B40421A607047CC01002058220120C1
:1018A000014B40421A607047CC0100205822024B85
:1018B00000201A607047C046CC0100205822012049
:1018C000014B40421A607047CC010020044A136863
:1018D000002B03D018181060181C7047014BF9E753
:1018E000C8010020D0010020F8B5C046F8BC08BCF3
:1018F0009E467047F8B5C046F8BC08BC9E46704787
:10190000430000000000002041637475616C207486
:10191000656D70657261747572653A2025640A0D93
:1019200000000000000000000000000000000000B7
:1019300000000000000000000000000000000000A7
:101940000000000000000000000000000000000097
:101950000000000000000000000000000000000087
:101960000000000000000000000000000000000077
:101970000000000000000000000000000000000067
:1019800000000000232D302B2000686C4C006566A1
:1019900067454647003031323334353637383941C0
:1019A00042434445460030313233343536373839D6
:0719B00061626364656600DB
:0819B80008E7FF7F01000000B9
:1019C0000000000024190000441900006419000000
:1019D0000000000000000000000000000000000007
:1019E00000190000000000000000000000000000DE
:1019F00000000000000000000000000000000000E7
:101A000000000000000000000000000000000000D6
:101A100000000000000000000000000000000000C6
:081A200000000020010000009D
:0400000300000915DB
:00000001FF
